{
  "_format": "hh-sol-artifact-1",
  "contractName": "MSMToken",
  "sourceName": "contracts/MSMToken.sol",
  "abi": [
    {
      "inputs": [
        {
          "internalType": "string",
          "name": "name_",
          "type": "string"
        },
        {
          "internalType": "string",
          "name": "symbol_",
          "type": "string"
        },
        {
          "internalType": "string",
          "name": "baseURI_",
          "type": "string"
        },
        {
          "internalType": "uint256",
          "name": "maxSupply_",
          "type": "uint256"
        },
        {
          "internalType": "address",
          "name": "royaltyReceiver_",
          "type": "address"
        }
      ],
      "stateMutability": "nonpayable",
      "type": "constructor"
    },
    {
      "inputs": [],
      "name": "ApprovalCallerNotOwnerNorApproved",
      "type": "error"
    },
    {
      "inputs": [],
      "name": "ApprovalQueryForNonexistentToken",
      "type": "error"
    },
    {
      "inputs": [],
      "name": "ApproveToCaller",
      "type": "error"
    },
    {
      "inputs": [],
      "name": "BalanceQueryForZeroAddress",
      "type": "error"
    },
    {
      "inputs": [],
      "name": "MintERC2309QuantityExceedsLimit",
      "type": "error"
    },
    {
      "inputs": [],
      "name": "MintToZeroAddress",
      "type": "error"
    },
    {
      "inputs": [],
      "name": "MintZeroQuantity",
      "type": "error"
    },
    {
      "inputs": [],
      "name": "OwnerQueryForNonexistentToken",
      "type": "error"
    },
    {
      "inputs": [],
      "name": "OwnershipNotInitializedForExtraData",
      "type": "error"
    },
    {
      "inputs": [],
      "name": "TransferCallerNotOwnerNorApproved",
      "type": "error"
    },
    {
      "inputs": [],
      "name": "TransferFromIncorrectOwner",
      "type": "error"
    },
    {
      "inputs": [],
      "name": "TransferToNonERC721ReceiverImplementer",
      "type": "error"
    },
    {
      "inputs": [],
      "name": "TransferToZeroAddress",
      "type": "error"
    },
    {
      "inputs": [],
      "name": "URIQueryForNonexistentToken",
      "type": "error"
    },
    {
      "anonymous": false,
      "inputs": [
        {
          "indexed": true,
          "internalType": "address",
          "name": "owner",
          "type": "address"
        },
        {
          "indexed": true,
          "internalType": "address",
          "name": "approved",
          "type": "address"
        },
        {
          "indexed": true,
          "internalType": "uint256",
          "name": "tokenId",
          "type": "uint256"
        }
      ],
      "name": "Approval",
      "type": "event"
    },
    {
      "anonymous": false,
      "inputs": [
        {
          "indexed": true,
          "internalType": "address",
          "name": "owner",
          "type": "address"
        },
        {
          "indexed": true,
          "internalType": "address",
          "name": "operator",
          "type": "address"
        },
        {
          "indexed": false,
          "internalType": "bool",
          "name": "approved",
          "type": "bool"
        }
      ],
      "name": "ApprovalForAll",
      "type": "event"
    },
    {
      "anonymous": false,
      "inputs": [
        {
          "indexed": true,
          "internalType": "uint256",
          "name": "fromTokenId",
          "type": "uint256"
        },
        {
          "indexed": false,
          "internalType": "uint256",
          "name": "toTokenId",
          "type": "uint256"
        },
        {
          "indexed": true,
          "internalType": "address",
          "name": "from",
          "type": "address"
        },
        {
          "indexed": true,
          "internalType": "address",
          "name": "to",
          "type": "address"
        }
      ],
      "name": "ConsecutiveTransfer",
      "type": "event"
    },
    {
      "anonymous": false,
      "inputs": [
        {
          "indexed": true,
          "internalType": "address",
          "name": "previousOwner",
          "type": "address"
        },
        {
          "indexed": true,
          "internalType": "address",
          "name": "newOwner",
          "type": "address"
        }
      ],
      "name": "OwnershipTransferred",
      "type": "event"
    },
    {
      "anonymous": false,
      "inputs": [
        {
          "indexed": false,
          "internalType": "address",
          "name": "account",
          "type": "address"
        }
      ],
      "name": "Paused",
      "type": "event"
    },
    {
      "anonymous": false,
      "inputs": [
        {
          "indexed": true,
          "internalType": "address",
          "name": "from",
          "type": "address"
        },
        {
          "indexed": true,
          "internalType": "address",
          "name": "to",
          "type": "address"
        },
        {
          "indexed": true,
          "internalType": "uint256",
          "name": "tokenId",
          "type": "uint256"
        }
      ],
      "name": "Transfer",
      "type": "event"
    },
    {
      "anonymous": false,
      "inputs": [
        {
          "indexed": false,
          "internalType": "address",
          "name": "account",
          "type": "address"
        }
      ],
      "name": "Unpaused",
      "type": "event"
    },
    {
      "inputs": [],
      "name": "_clawbackAddress",
      "outputs": [
        {
          "internalType": "address",
          "name": "",
          "type": "address"
        }
      ],
      "stateMutability": "view",
      "type": "function"
    },
    {
      "inputs": [],
      "name": "_maxSupply",
      "outputs": [
        {
          "internalType": "uint256",
          "name": "",
          "type": "uint256"
        }
      ],
      "stateMutability": "view",
      "type": "function"
    },
    {
      "inputs": [],
      "name": "_nextTransferLockDuration",
      "outputs": [
        {
          "internalType": "uint256",
          "name": "",
          "type": "uint256"
        }
      ],
      "stateMutability": "view",
      "type": "function"
    },
    {
      "inputs": [],
      "name": "_royaltyPoints",
      "outputs": [
        {
          "internalType": "uint256",
          "name": "",
          "type": "uint256"
        }
      ],
      "stateMutability": "view",
      "type": "function"
    },
    {
      "inputs": [],
      "name": "_royaltyReceiver",
      "outputs": [
        {
          "internalType": "address",
          "name": "",
          "type": "address"
        }
      ],
      "stateMutability": "view",
      "type": "function"
    },
    {
      "inputs": [],
      "name": "_uri",
      "outputs": [
        {
          "internalType": "string",
          "name": "",
          "type": "string"
        }
      ],
      "stateMutability": "view",
      "type": "function"
    },
    {
      "inputs": [
        {
          "internalType": "uint256",
          "name": "quantity_",
          "type": "uint256"
        }
      ],
      "name": "adminMint",
      "outputs": [],
      "stateMutability": "nonpayable",
      "type": "function"
    },
    {
      "inputs": [
        {
          "internalType": "address",
          "name": "to",
          "type": "address"
        },
        {
          "internalType": "uint256",
          "name": "tokenId",
          "type": "uint256"
        }
      ],
      "name": "approve",
      "outputs": [],
      "stateMutability": "nonpayable",
      "type": "function"
    },
    {
      "inputs": [
        {
          "internalType": "address",
          "name": "owner",
          "type": "address"
        }
      ],
      "name": "balanceOf",
      "outputs": [
        {
          "internalType": "uint256",
          "name": "",
          "type": "uint256"
        }
      ],
      "stateMutability": "view",
      "type": "function"
    },
    {
      "inputs": [
        {
          "internalType": "uint256",
          "name": "tokenId",
          "type": "uint256"
        }
      ],
      "name": "clawback",
      "outputs": [],
      "stateMutability": "nonpayable",
      "type": "function"
    },
    {
      "inputs": [],
      "name": "contractURI",
      "outputs": [
        {
          "internalType": "string",
          "name": "",
          "type": "string"
        }
      ],
      "stateMutability": "view",
      "type": "function"
    },
    {
      "inputs": [
        {
          "internalType": "uint256",
          "name": "tokenId",
          "type": "uint256"
        }
      ],
      "name": "getApproved",
      "outputs": [
        {
          "internalType": "address",
          "name": "",
          "type": "address"
        }
      ],
      "stateMutability": "view",
      "type": "function"
    },
    {
      "inputs": [
        {
          "internalType": "uint256",
          "name": "tokenId_",
          "type": "uint256"
        }
      ],
      "name": "getTokenLockTime",
      "outputs": [
        {
          "internalType": "uint256",
          "name": "",
          "type": "uint256"
        }
      ],
      "stateMutability": "view",
      "type": "function"
    },
    {
      "inputs": [
        {
          "internalType": "address",
          "name": "owner",
          "type": "address"
        },
        {
          "internalType": "address",
          "name": "operator",
          "type": "address"
        }
      ],
      "name": "isApprovedForAll",
      "outputs": [
        {
          "internalType": "bool",
          "name": "",
          "type": "bool"
        }
      ],
      "stateMutability": "view",
      "type": "function"
    },
    {
      "inputs": [
        {
          "internalType": "uint256",
          "name": "tokenId_",
          "type": "uint256"
        },
        {
          "internalType": "uint256",
          "name": "seconds_",
          "type": "uint256"
        }
      ],
      "name": "lockToken",
      "outputs": [],
      "stateMutability": "nonpayable",
      "type": "function"
    },
    {
      "inputs": [],
      "name": "name",
      "outputs": [
        {
          "internalType": "string",
          "name": "",
          "type": "string"
        }
      ],
      "stateMutability": "view",
      "type": "function"
    },
    {
      "inputs": [],
      "name": "owner",
      "outputs": [
        {
          "internalType": "address",
          "name": "",
          "type": "address"
        }
      ],
      "stateMutability": "view",
      "type": "function"
    },
    {
      "inputs": [
        {
          "internalType": "uint256",
          "name": "tokenId_",
          "type": "uint256"
        }
      ],
      "name": "ownerBurn",
      "outputs": [],
      "stateMutability": "nonpayable",
      "type": "function"
    },
    {
      "inputs": [
        {
          "internalType": "uint256",
          "name": "tokenId",
          "type": "uint256"
        }
      ],
      "name": "ownerOf",
      "outputs": [
        {
          "internalType": "address",
          "name": "",
          "type": "address"
        }
      ],
      "stateMutability": "view",
      "type": "function"
    },
    {
      "inputs": [],
      "name": "pause",
      "outputs": [],
      "stateMutability": "nonpayable",
      "type": "function"
    },
    {
      "inputs": [],
      "name": "paused",
      "outputs": [
        {
          "internalType": "bool",
          "name": "",
          "type": "bool"
        }
      ],
      "stateMutability": "view",
      "type": "function"
    },
    {
      "inputs": [],
      "name": "renounceOwnership",
      "outputs": [],
      "stateMutability": "nonpayable",
      "type": "function"
    },
    {
      "inputs": [
        {
          "internalType": "uint256",
          "name": "",
          "type": "uint256"
        },
        {
          "internalType": "uint256",
          "name": "_salePrice",
          "type": "uint256"
        }
      ],
      "name": "royaltyInfo",
      "outputs": [
        {
          "internalType": "address",
          "name": "receiver",
          "type": "address"
        },
        {
          "internalType": "uint256",
          "name": "royaltyAmount",
          "type": "uint256"
        }
      ],
      "stateMutability": "view",
      "type": "function"
    },
    {
      "inputs": [
        {
          "internalType": "address",
          "name": "from",
          "type": "address"
        },
        {
          "internalType": "address",
          "name": "to",
          "type": "address"
        },
        {
          "internalType": "uint256",
          "name": "tokenId",
          "type": "uint256"
        }
      ],
      "name": "safeTransferFrom",
      "outputs": [],
      "stateMutability": "nonpayable",
      "type": "function"
    },
    {
      "inputs": [
        {
          "internalType": "address",
          "name": "from",
          "type": "address"
        },
        {
          "internalType": "address",
          "name": "to",
          "type": "address"
        },
        {
          "internalType": "uint256",
          "name": "tokenId",
          "type": "uint256"
        },
        {
          "internalType": "bytes",
          "name": "_data",
          "type": "bytes"
        }
      ],
      "name": "safeTransferFrom",
      "outputs": [],
      "stateMutability": "nonpayable",
      "type": "function"
    },
    {
      "inputs": [
        {
          "internalType": "address",
          "name": "operator",
          "type": "address"
        },
        {
          "internalType": "bool",
          "name": "approved",
          "type": "bool"
        }
      ],
      "name": "setApprovalForAll",
      "outputs": [],
      "stateMutability": "nonpayable",
      "type": "function"
    },
    {
      "inputs": [
        {
          "internalType": "string",
          "name": "uri_",
          "type": "string"
        }
      ],
      "name": "setBaseURI",
      "outputs": [],
      "stateMutability": "nonpayable",
      "type": "function"
    },
    {
      "inputs": [
        {
          "internalType": "address",
          "name": "address_",
          "type": "address"
        }
      ],
      "name": "setClawbackAddress",
      "outputs": [],
      "stateMutability": "nonpayable",
      "type": "function"
    },
    {
      "inputs": [
        {
          "internalType": "uint256",
          "name": "nextTransferLockDuration_",
          "type": "uint256"
        }
      ],
      "name": "setNextTransfersLockDuration",
      "outputs": [],
      "stateMutability": "nonpayable",
      "type": "function"
    },
    {
      "inputs": [
        {
          "internalType": "uint256",
          "name": "royalty_",
          "type": "uint256"
        },
        {
          "internalType": "address",
          "name": "royaltyReceiver_",
          "type": "address"
        }
      ],
      "name": "setRoyalty",
      "outputs": [],
      "stateMutability": "nonpayable",
      "type": "function"
    },
    {
      "inputs": [
        {
          "internalType": "bytes4",
          "name": "interfaceId",
          "type": "bytes4"
        }
      ],
      "name": "supportsInterface",
      "outputs": [
        {
          "internalType": "bool",
          "name": "",
          "type": "bool"
        }
      ],
      "stateMutability": "view",
      "type": "function"
    },
    {
      "inputs": [],
      "name": "symbol",
      "outputs": [
        {
          "internalType": "string",
          "name": "",
          "type": "string"
        }
      ],
      "stateMutability": "view",
      "type": "function"
    },
    {
      "inputs": [
        {
          "internalType": "uint256",
          "name": "tokenId",
          "type": "uint256"
        }
      ],
      "name": "tokenURI",
      "outputs": [
        {
          "internalType": "string",
          "name": "",
          "type": "string"
        }
      ],
      "stateMutability": "view",
      "type": "function"
    },
    {
      "inputs": [
        {
          "internalType": "uint256",
          "name": "",
          "type": "uint256"
        }
      ],
      "name": "tokensLockTime",
      "outputs": [
        {
          "internalType": "uint256",
          "name": "",
          "type": "uint256"
        }
      ],
      "stateMutability": "view",
      "type": "function"
    },
    {
      "inputs": [],
      "name": "totalSupply",
      "outputs": [
        {
          "internalType": "uint256",
          "name": "",
          "type": "uint256"
        }
      ],
      "stateMutability": "view",
      "type": "function"
    },
    {
      "inputs": [
        {
          "internalType": "address",
          "name": "from",
          "type": "address"
        },
        {
          "internalType": "address",
          "name": "to",
          "type": "address"
        },
        {
          "internalType": "uint256",
          "name": "tokenId",
          "type": "uint256"
        }
      ],
      "name": "transferFrom",
      "outputs": [],
      "stateMutability": "nonpayable",
      "type": "function"
    },
    {
      "inputs": [
        {
          "internalType": "address",
          "name": "newOwner",
          "type": "address"
        }
      ],
      "name": "transferOwnership",
      "outputs": [],
      "stateMutability": "nonpayable",
      "type": "function"
    },
    {
      "inputs": [],
      "name": "unpause",
      "outputs": [],
      "stateMutability": "nonpayable",
      "type": "function"
    },
    {
      "inputs": [],
      "name": "withdraw",
      "outputs": [],
      "stateMutability": "nonpayable",
      "type": "function"
    },
    {
      "stateMutability": "payable",
      "type": "receive"
    }
  ],
  "bytecode": "0x60806040526101f4600a556202a300600d553480156200001e57600080fd5b5060405162003fcc38038062003fcc83398181016040528101906200004491906200043d565b848481600290805190602001906200005e929190620002ed565b50806003908051906020019062000077929190620002ed565b50620000886200012f60201b60201c565b6000819055505050620000b0620000a46200013860201b60201c565b6200014060201b60201c565b6000600860146101000a81548160ff021916908315150217905550620000dc836200020660201b60201c565b81600c8190555080600e60006101000a81548173ffffffffffffffffffffffffffffffffffffffff021916908373ffffffffffffffffffffffffffffffffffffffff16021790555050505050506200076f565b60006001905090565b600033905090565b6000600860009054906101000a900473ffffffffffffffffffffffffffffffffffffffff16905081600860006101000a81548173ffffffffffffffffffffffffffffffffffffffff021916908373ffffffffffffffffffffffffffffffffffffffff1602179055508173ffffffffffffffffffffffffffffffffffffffff168173ffffffffffffffffffffffffffffffffffffffff167f8be0079c531659141344cd1fd0a4f28419497f9722a3daafe3b4186f6b6457e060405160405180910390a35050565b620002166200023260201b60201c565b80600990805190602001906200022e929190620002ed565b5050565b620002426200013860201b60201c565b73ffffffffffffffffffffffffffffffffffffffff1662000268620002c360201b60201c565b73ffffffffffffffffffffffffffffffffffffffff1614620002c1576040517f08c379a0000000000000000000000000000000000000000000000000000000008152600401620002b89062000531565b60405180910390fd5b565b6000600860009054906101000a900473ffffffffffffffffffffffffffffffffffffffff16905090565b828054620002fb9062000637565b90600052602060002090601f0160209004810192826200031f57600085556200036b565b82601f106200033a57805160ff19168380011785556200036b565b828001600101855582156200036b579182015b828111156200036a5782518255916020019190600101906200034d565b5b5090506200037a91906200037e565b5090565b5b80821115620003995760008160009055506001016200037f565b5090565b6000620003b4620003ae846200057c565b62000553565b905082815260208101848484011115620003cd57600080fd5b620003da84828562000601565b509392505050565b600081519050620003f3816200073b565b92915050565b600082601f8301126200040b57600080fd5b81516200041d8482602086016200039d565b91505092915050565b600081519050620004378162000755565b92915050565b600080600080600060a086880312156200045657600080fd5b600086015167ffffffffffffffff8111156200047157600080fd5b6200047f88828901620003f9565b955050602086015167ffffffffffffffff8111156200049d57600080fd5b620004ab88828901620003f9565b945050604086015167ffffffffffffffff811115620004c957600080fd5b620004d788828901620003f9565b9350506060620004ea8882890162000426565b9250506080620004fd88828901620003e2565b9150509295509295909350565b600062000519602083620005b2565b9150620005268262000712565b602082019050919050565b600060208201905081810360008301526200054c816200050a565b9050919050565b60006200055f62000572565b90506200056d82826200066d565b919050565b6000604051905090565b600067ffffffffffffffff8211156200059a5762000599620006d2565b5b620005a58262000701565b9050602081019050919050565b600082825260208201905092915050565b6000620005d082620005d7565b9050919050565b600073ffffffffffffffffffffffffffffffffffffffff82169050919050565b6000819050919050565b60005b838110156200062157808201518184015260208101905062000604565b8381111562000631576000848401525b50505050565b600060028204905060018216806200065057607f821691505b60208210811415620006675762000666620006a3565b5b50919050565b620006788262000701565b810181811067ffffffffffffffff821117156200069a5762000699620006d2565b5b80604052505050565b7f4e487b7100000000000000000000000000000000000000000000000000000000600052602260045260246000fd5b7f4e487b7100000000000000000000000000000000000000000000000000000000600052604160045260246000fd5b6000601f19601f8301169050919050565b7f4f776e61626c653a2063616c6c6572206973206e6f7420746865206f776e6572600082015250565b6200074681620005c3565b81146200075257600080fd5b50565b6200076081620005f7565b81146200076c57600080fd5b50565b61384d806200077f6000396000f3fe6080604052600436106102345760003560e01c806370a082311161012e578063c1f26123116100ab578063e8a3d4851161006f578063e8a3d4851461081f578063e8f7c2731461084a578063e985e9c514610875578063f2fde38b146108b2578063fcc36bc9146108db5761023b565b8063c1f261231461073c578063c3c0beb514610765578063c6c6d6571461078e578063c87b56dd146107b7578063e637f98f146107f45761023b565b806395d89b41116100f257806395d89b41146106595780639e5e7e2414610684578063a22cb465146106c1578063b88d4fde146106ea578063baa34110146107135761023b565b806370a0823114610586578063715018a6146105c357806375e4bf2f146105da5780638456cb59146106175780638da5cb5b1461062e5761023b565b80632a55205a116101bc57806342842e0e1161018057806342842e0e146104a157806355f804b3146104ca5780635c975abb146104f35780636352211e1461051e57806367e47e691461055b5761023b565b80632a55205a146103e35780633a4b3664146104215780633ccfd60b1461044a5780633f4ba83a1461046157806340e3276b146104785761023b565b80630dccc9ad116102035780630dccc9ad1461030e57806318160ddd1461033957806322f4596f1461036457806323277f961461038f57806323b872dd146103ba5761023b565b806301ffc9a71461024057806306fdde031461027d578063081812fc146102a8578063095ea7b3146102e55761023b565b3661023b57005b600080fd5b34801561024c57600080fd5b5061026760048036038101906102629190612b28565b610904565b604051610274919061303a565b60405180910390f35b34801561028957600080fd5b506102926109fe565b60405161029f9190613055565b60405180910390f35b3480156102b457600080fd5b506102cf60048036038101906102ca9190612bbb565b610a90565b6040516102dc9190612faa565b60405180910390f35b3480156102f157600080fd5b5061030c60048036038101906103079190612aec565b610b0f565b005b34801561031a57600080fd5b50610323610c53565b6040516103309190613055565b60405180910390f35b34801561034557600080fd5b5061034e610ce1565b60405161035b91906131b7565b60405180910390f35b34801561037057600080fd5b50610379610cf8565b60405161038691906131b7565b60405180910390f35b34801561039b57600080fd5b506103a4610cfe565b6040516103b191906131b7565b60405180910390f35b3480156103c657600080fd5b506103e160048036038101906103dc91906129e6565b610d04565b005b3480156103ef57600080fd5b5061040a60048036038101906104059190612c20565b611029565b604051610418929190613011565b60405180910390f35b34801561042d57600080fd5b5061044860048036038101906104439190612bbb565b611075565b005b34801561045657600080fd5b5061045f611089565b005b34801561046d57600080fd5b506104766110ed565b005b34801561048457600080fd5b5061049f600480360381019061049a9190612be4565b6110ff565b005b3480156104ad57600080fd5b506104c860048036038101906104c391906129e6565b611153565b005b3480156104d657600080fd5b506104f160048036038101906104ec9190612b7a565b611173565b005b3480156104ff57600080fd5b50610508611195565b604051610515919061303a565b60405180910390f35b34801561052a57600080fd5b5061054560048036038101906105409190612bbb565b6111ac565b6040516105529190612faa565b60405180910390f35b34801561056757600080fd5b506105706111be565b60405161057d91906131b7565b60405180910390f35b34801561059257600080fd5b506105ad60048036038101906105a89190612981565b6111c4565b6040516105ba91906131b7565b60405180910390f35b3480156105cf57600080fd5b506105d861127d565b005b3480156105e657600080fd5b5061060160048036038101906105fc9190612bbb565b611291565b60405161060e91906131b7565b60405180910390f35b34801561062357600080fd5b5061062c6112ae565b005b34801561063a57600080fd5b506106436112c0565b6040516106509190612faa565b60405180910390f35b34801561066557600080fd5b5061066e6112ea565b60405161067b9190613055565b60405180910390f35b34801561069057600080fd5b506106ab60048036038101906106a69190612bbb565b61137c565b6040516106b891906131b7565b60405180910390f35b3480156106cd57600080fd5b506106e860048036038101906106e39190612ab0565b611394565b005b3480156106f657600080fd5b50610711600480360381019061070c9190612a35565b61150c565b005b34801561071f57600080fd5b5061073a60048036038101906107359190612c20565b61157f565b005b34801561074857600080fd5b50610763600480360381019061075e9190612bbb565b6115b6565b005b34801561077157600080fd5b5061078c60048036038101906107879190612981565b61162a565b005b34801561079a57600080fd5b506107b560048036038101906107b09190612bbb565b611676565b005b3480156107c357600080fd5b506107de60048036038101906107d99190612bbb565b611690565b6040516107eb9190613055565b60405180910390f35b34801561080057600080fd5b5061080961172f565b6040516108169190612faa565b60405180910390f35b34801561082b57600080fd5b50610834611755565b6040516108419190613055565b60405180910390f35b34801561085657600080fd5b5061085f61177d565b60405161086c9190612faa565b60405180910390f35b34801561088157600080fd5b5061089c600480360381019061089791906129aa565b6117a3565b6040516108a9919061303a565b60405180910390f35b3480156108be57600080fd5b506108d960048036038101906108d49190612981565b611837565b005b3480156108e757600080fd5b5061090260048036038101906108fd9190612bbb565b6118bb565b005b60007f2a55205a000000000000000000000000000000000000000000000000000000007bffffffffffffffffffffffffffffffffffffffffffffffffffffffff1916827bffffffffffffffffffffffffffffffffffffffffffffffffffffffff1916148061099757506301ffc9a760e01b827bffffffffffffffffffffffffffffffffffffffffffffffffffffffff1916145b806109c757506380ac58cd60e01b827bffffffffffffffffffffffffffffffffffffffffffffffffffffffff1916145b806109f75750635b5e139f60e01b827bffffffffffffffffffffffffffffffffffffffffffffffffffffffff1916145b9050919050565b606060028054610a0d90613453565b80601f0160208091040260200160405190810160405280929190818152602001828054610a3990613453565b8015610a865780601f10610a5b57610100808354040283529160200191610a86565b820191906000526020600020905b815481529060010190602001808311610a6957829003601f168201915b5050505050905090565b6000610a9b826119d3565b610ad1576040517fcf4700e400000000000000000000000000000000000000000000000000000000815260040160405180910390fd5b6006600083815260200190815260200160002060000160009054906101000a900473ffffffffffffffffffffffffffffffffffffffff169050919050565b6000610b1a826111ac565b90508073ffffffffffffffffffffffffffffffffffffffff16610b3b611a32565b73ffffffffffffffffffffffffffffffffffffffff1614610b9e57610b6781610b62611a32565b6117a3565b610b9d576040517fcfb3b94200000000000000000000000000000000000000000000000000000000815260040160405180910390fd5b5b826006600084815260200190815260200160002060000160006101000a81548173ffffffffffffffffffffffffffffffffffffffff021916908373ffffffffffffffffffffffffffffffffffffffff160217905550818373ffffffffffffffffffffffffffffffffffffffff168273ffffffffffffffffffffffffffffffffffffffff167f8c5be1e5ebec7d5bd14f71427d1e84f3dd0314c0f7b2291e5b200ac8c7c3b92560405160405180910390a4505050565b60098054610c6090613453565b80601f0160208091040260200160405190810160405280929190818152602001828054610c8c90613453565b8015610cd95780601f10610cae57610100808354040283529160200191610cd9565b820191906000526020600020905b815481529060010190602001808311610cbc57829003601f168201915b505050505081565b6000610ceb611abb565b6001546000540303905090565b600c5481565b600a5481565b6000610d0f82611ac4565b90508373ffffffffffffffffffffffffffffffffffffffff168173ffffffffffffffffffffffffffffffffffffffff1614610d76576040517fa114810000000000000000000000000000000000000000000000000000000000815260040160405180910390fd5b600080610d8284611b92565b91509150610d988187610d93611a32565b611bb9565b610de457610dad86610da8611a32565b6117a3565b610de3576040517f59c896be00000000000000000000000000000000000000000000000000000000815260040160405180910390fd5b5b600073ffffffffffffffffffffffffffffffffffffffff168573ffffffffffffffffffffffffffffffffffffffff161415610e4b576040517fea553b3400000000000000000000000000000000000000000000000000000000815260040160405180910390fd5b610e588686866001611bfd565b8015610e6357600082555b600560008773ffffffffffffffffffffffffffffffffffffffff1673ffffffffffffffffffffffffffffffffffffffff168152602001908152602001600020600081546001900391905081905550600560008673ffffffffffffffffffffffffffffffffffffffff1673ffffffffffffffffffffffffffffffffffffffff1681526020019081526020016000206000815460010191905081905550610f3185610f0d888887611d29565b7c020000000000000000000000000000000000000000000000000000000017611d51565b600460008681526020019081526020016000208190555060007c020000000000000000000000000000000000000000000000000000000084161415610fb9576000600185019050600060046000838152602001908152602001600020541415610fb7576000548114610fb6578360046000838152602001908152602001600020819055505b5b505b838573ffffffffffffffffffffffffffffffffffffffff168773ffffffffffffffffffffffffffffffffffffffff167fddf252ad1be2c89b69c2b068fc378daa952ba7f163c4a11628f55a4df523b3ef60405160405180910390a46110218686866001611d7c565b505050505050565b600080600e60009054906101000a900473ffffffffffffffffffffffffffffffffffffffff16612710600a54856110609190613343565b61106a9190613312565b915091509250929050565b61107d611d82565b61108681611e00565b50565b611091611e0e565b6000479050600081116110d9576040517f08c379a00000000000000000000000000000000000000000000000000000000081526004016110d0906130b7565b60405180910390fd5b6110ea6110e46112c0565b82611e58565b50565b6110f5611d82565b6110fd611f4c565b565b611107611d82565b81600a8190555080600e60006101000a81548173ffffffffffffffffffffffffffffffffffffffff021916908373ffffffffffffffffffffffffffffffffffffffff1602179055505050565b61116e8383836040518060200160405280600081525061150c565b505050565b61117b611d82565b80600990805190602001906111919291906127a5565b5050565b6000600860149054906101000a900460ff16905090565b60006111b782611ac4565b9050919050565b600d5481565b60008073ffffffffffffffffffffffffffffffffffffffff168273ffffffffffffffffffffffffffffffffffffffff16141561122c576040517f8f4eb60400000000000000000000000000000000000000000000000000000000815260040160405180910390fd5b67ffffffffffffffff600560008473ffffffffffffffffffffffffffffffffffffffff1673ffffffffffffffffffffffffffffffffffffffff16815260200190815260200160002054169050919050565b611285611d82565b61128f6000611faf565b565b6000600b6000838152602001908152602001600020549050919050565b6112b6611d82565b6112be612075565b565b6000600860009054906101000a900473ffffffffffffffffffffffffffffffffffffffff16905090565b6060600380546112f990613453565b80601f016020809104026020016040519081016040528092919081815260200182805461132590613453565b80156113725780601f1061134757610100808354040283529160200191611372565b820191906000526020600020905b81548152906001019060200180831161135557829003601f168201915b5050505050905090565b600b6020528060005260406000206000915090505481565b61139c611a32565b73ffffffffffffffffffffffffffffffffffffffff168273ffffffffffffffffffffffffffffffffffffffff161415611401576040517fb06307db00000000000000000000000000000000000000000000000000000000815260040160405180910390fd5b806007600061140e611a32565b73ffffffffffffffffffffffffffffffffffffffff1673ffffffffffffffffffffffffffffffffffffffff16815260200190815260200160002060008473ffffffffffffffffffffffffffffffffffffffff1673ffffffffffffffffffffffffffffffffffffffff16815260200190815260200160002060006101000a81548160ff0219169083151502179055508173ffffffffffffffffffffffffffffffffffffffff166114bb611a32565b73ffffffffffffffffffffffffffffffffffffffff167f17307eab39ab6107e8899845ad3d59bd9653f200f220920489ca2b5937696c3183604051611500919061303a565b60405180910390a35050565b611517848484610d04565b60008373ffffffffffffffffffffffffffffffffffffffff163b1461157957611542848484846120d8565b611578576040517fd1a57ed600000000000000000000000000000000000000000000000000000000815260040160405180910390fd5b5b50505050565b611587611e0e565b61158f611d82565b804261159b91906132bc565b600b6000848152602001908152602001600020819055505050565b6115be611e0e565b6115c6611d82565b600c54816115d2610ce1565b6115dc91906132bc565b111561161d576040517f08c379a000000000000000000000000000000000000000000000000000000000815260040161161490613177565b60405180910390fd5b6116273382612238565b50565b611632611d82565b80600f60006101000a81548173ffffffffffffffffffffffffffffffffffffffff021916908373ffffffffffffffffffffffffffffffffffffffff16021790555050565b61167e611e0e565b611686611d82565b80600d8190555050565b606061169b826119d3565b6116d1576040517fa14c4b5000000000000000000000000000000000000000000000000000000000815260040160405180910390fd5b60006116db6123f5565b90506000815114156116fc5760405180602001604052806000815250611727565b8061170684612487565b604051602001611717929190612f4f565b6040516020818303038152906040525b915050919050565b600e60009054906101000a900473ffffffffffffffffffffffffffffffffffffffff1681565b606060096040516020016117699190612f73565b604051602081830303815290604052905090565b600f60009054906101000a900473ffffffffffffffffffffffffffffffffffffffff1681565b6000600760008473ffffffffffffffffffffffffffffffffffffffff1673ffffffffffffffffffffffffffffffffffffffff16815260200190815260200160002060008373ffffffffffffffffffffffffffffffffffffffff1673ffffffffffffffffffffffffffffffffffffffff16815260200190815260200160002060009054906101000a900460ff16905092915050565b61183f611d82565b600073ffffffffffffffffffffffffffffffffffffffff168173ffffffffffffffffffffffffffffffffffffffff1614156118af576040517f08c379a00000000000000000000000000000000000000000000000000000000081526004016118a690613097565b60405180910390fd5b6118b881611faf565b50565b6118c3611e0e565b600f60009054906101000a900473ffffffffffffffffffffffffffffffffffffffff1673ffffffffffffffffffffffffffffffffffffffff163373ffffffffffffffffffffffffffffffffffffffff1614611953576040517f08c379a000000000000000000000000000000000000000000000000000000000815260040161194a90613137565b60405180910390fd5b61195c816111ac565b601060006101000a81548173ffffffffffffffffffffffffffffffffffffffff021916908373ffffffffffffffffffffffffffffffffffffffff1602179055506119d0601060009054906101000a900473ffffffffffffffffffffffffffffffffffffffff166119ca6112c0565b83611153565b50565b6000816119de611abb565b111580156119ed575060005482105b8015611a2b575060007c0100000000000000000000000000000000000000000000000000000000600460008581526020019081526020016000205416145b9050919050565b6000600f60009054906101000a900473ffffffffffffffffffffffffffffffffffffffff1673ffffffffffffffffffffffffffffffffffffffff163373ffffffffffffffffffffffffffffffffffffffff161415611ab457601060009054906101000a900473ffffffffffffffffffffffffffffffffffffffff169050611ab8565b3390505b90565b60006001905090565b60008082905080611ad3611abb565b11611b5b57600054811015611b5a5760006004600083815260200190815260200160002054905060007c010000000000000000000000000000000000000000000000000000000082161415611b58575b6000811415611b4e576004600083600190039350838152602001908152602001600020549050611b23565b8092505050611b8d565b505b5b6040517fdf2d9b4200000000000000000000000000000000000000000000000000000000815260040160405180910390fd5b919050565b60008060006006600085815260200190815260200160002090508092508254915050915091565b600073ffffffffffffffffffffffffffffffffffffffff8316925073ffffffffffffffffffffffffffffffffffffffff821691508382148383141790509392505050565b611c05611e0e565b611c0d6112c0565b73ffffffffffffffffffffffffffffffffffffffff163373ffffffffffffffffffffffffffffffffffffffff1614158015611c965750600f60009054906101000a900473ffffffffffffffffffffffffffffffffffffffff1673ffffffffffffffffffffffffffffffffffffffff163373ffffffffffffffffffffffffffffffffffffffff1614155b15611d1757600b600083815260200190815260200160002054421015611cf1576040517f08c379a0000000000000000000000000000000000000000000000000000000008152600401611ce890613197565b60405180910390fd5b600d5442611cff91906132bc565b600b6000848152602001908152602001600020819055505b611d23848484846124e1565b50505050565b60008060e883901c905060e8611d408686846124e7565b62ffffff16901b9150509392505050565b600073ffffffffffffffffffffffffffffffffffffffff83169250814260a01b178317905092915050565b50505050565b611d8a6124f0565b73ffffffffffffffffffffffffffffffffffffffff16611da86112c0565b73ffffffffffffffffffffffffffffffffffffffff1614611dfe576040517f08c379a0000000000000000000000000000000000000000000000000000000008152600401611df590613157565b60405180910390fd5b565b611e0b8160006124f8565b50565b611e16611195565b15611e56576040517f08c379a0000000000000000000000000000000000000000000000000000000008152600401611e4d90613117565b60405180910390fd5b565b80471015611e9b576040517f08c379a0000000000000000000000000000000000000000000000000000000008152600401611e92906130f7565b60405180910390fd5b60008273ffffffffffffffffffffffffffffffffffffffff1682604051611ec190612f95565b60006040518083038185875af1925050503d8060008114611efe576040519150601f19603f3d011682016040523d82523d6000602084013e611f03565b606091505b5050905080611f47576040517f08c379a0000000000000000000000000000000000000000000000000000000008152600401611f3e906130d7565b60405180910390fd5b505050565b611f5461274c565b6000600860146101000a81548160ff0219169083151502179055507f5db9ee0a495bf2e6ff9c91a7834c1ba4fdd244a5e8aa4e537bd38aeae4b073aa611f986124f0565b604051611fa59190612faa565b60405180910390a1565b6000600860009054906101000a900473ffffffffffffffffffffffffffffffffffffffff16905081600860006101000a81548173ffffffffffffffffffffffffffffffffffffffff021916908373ffffffffffffffffffffffffffffffffffffffff1602179055508173ffffffffffffffffffffffffffffffffffffffff168173ffffffffffffffffffffffffffffffffffffffff167f8be0079c531659141344cd1fd0a4f28419497f9722a3daafe3b4186f6b6457e060405160405180910390a35050565b61207d611e0e565b6001600860146101000a81548160ff0219169083151502179055507f62e78cea01bee320cd4e420270b5ea74000d11b0c9f74754ebdbfc544b05a2586120c16124f0565b6040516120ce9190612faa565b60405180910390a1565b60008373ffffffffffffffffffffffffffffffffffffffff1663150b7a026120fe611a32565b8786866040518563ffffffff1660e01b81526004016121209493929190612fc5565b602060405180830381600087803b15801561213a57600080fd5b505af192505050801561216b57506040513d601f19601f820116820180604052508101906121689190612b51565b60015b6121e5573d806000811461219b576040519150601f19603f3d011682016040523d82523d6000602084013e6121a0565b606091505b506000815114156121dd576040517fd1a57ed600000000000000000000000000000000000000000000000000000000815260040160405180910390fd5b805181602001fd5b63150b7a0260e01b7bffffffffffffffffffffffffffffffffffffffffffffffffffffffff1916817bffffffffffffffffffffffffffffffffffffffffffffffffffffffff191614915050949350505050565b6000805490506000821415612279576040517fb562e8dd00000000000000000000000000000000000000000000000000000000815260040160405180910390fd5b6122866000848385611bfd565b600160406001901b178202600560008573ffffffffffffffffffffffffffffffffffffffff1673ffffffffffffffffffffffffffffffffffffffff168152602001908152602001600020600082825401925050819055506122fd836122ee6000866000611d29565b6122f785612795565b17611d51565b6004600083815260200190815260200160002081905550600080838301905073ffffffffffffffffffffffffffffffffffffffff85169150828260007fddf252ad1be2c89b69c2b068fc378daa952ba7f163c4a11628f55a4df523b3ef600080a4600183015b81811461239e57808360007fddf252ad1be2c89b69c2b068fc378daa952ba7f163c4a11628f55a4df523b3ef600080a4600181019050612363565b5060008214156123da576040517f2e07630000000000000000000000000000000000000000000000000000000000815260040160405180910390fd5b8060008190555050506123f06000848385611d7c565b505050565b60606009805461240490613453565b80601f016020809104026020016040519081016040528092919081815260200182805461243090613453565b801561247d5780601f106124525761010080835404028352916020019161247d565b820191906000526020600020905b81548152906001019060200180831161246057829003601f168201915b5050505050905090565b60606080604051019050806040528082600183039250600a81066030018353600a810490505b80156124cd57600183039250600a81066030018353600a810490506124ad565b508181036020830392508083525050919050565b50505050565b60009392505050565b600033905090565b600061250383611ac4565b9050600081905060008061251686611b92565b91509150841561257f57612532818461252d611a32565b611bb9565b61257e5761254783612542611a32565b6117a3565b61257d576040517f59c896be00000000000000000000000000000000000000000000000000000000815260040160405180910390fd5b5b5b61258d836000886001611bfd565b801561259857600082555b600160806001901b03600560008573ffffffffffffffffffffffffffffffffffffffff1673ffffffffffffffffffffffffffffffffffffffff16815260200190815260200160002060008282540192505081905550612640836125fd85600088611d29565b7c02000000000000000000000000000000000000000000000000000000007c01000000000000000000000000000000000000000000000000000000001717611d51565b600460008881526020019081526020016000208190555060007c0200000000000000000000000000000000000000000000000000000000851614156126c85760006001870190506000600460008381526020019081526020016000205414156126c65760005481146126c5578460046000838152602001908152602001600020819055505b5b505b85600073ffffffffffffffffffffffffffffffffffffffff168473ffffffffffffffffffffffffffffffffffffffff167fddf252ad1be2c89b69c2b068fc378daa952ba7f163c4a11628f55a4df523b3ef60405160405180910390a4612732836000886001611d7c565b600160008154809291906001019190505550505050505050565b612754611195565b612793576040517f08c379a000000000000000000000000000000000000000000000000000000000815260040161278a90613077565b60405180910390fd5b565b60006001821460e11b9050919050565b8280546127b190613453565b90600052602060002090601f0160209004810192826127d3576000855561281a565b82601f106127ec57805160ff191683800117855561281a565b8280016001018555821561281a579182015b828111156128195782518255916020019190600101906127fe565b5b509050612827919061282b565b5090565b5b8082111561284457600081600090555060010161282c565b5090565b600061285b612856846131f7565b6131d2565b90508281526020810184848401111561287357600080fd5b61287e848285613411565b509392505050565b600061289961289484613228565b6131d2565b9050828152602081018484840111156128b157600080fd5b6128bc848285613411565b509392505050565b6000813590506128d3816137bb565b92915050565b6000813590506128e8816137d2565b92915050565b6000813590506128fd816137e9565b92915050565b600081519050612912816137e9565b92915050565b600082601f83011261292957600080fd5b8135612939848260208601612848565b91505092915050565b600082601f83011261295357600080fd5b8135612963848260208601612886565b91505092915050565b60008135905061297b81613800565b92915050565b60006020828403121561299357600080fd5b60006129a1848285016128c4565b91505092915050565b600080604083850312156129bd57600080fd5b60006129cb858286016128c4565b92505060206129dc858286016128c4565b9150509250929050565b6000806000606084860312156129fb57600080fd5b6000612a09868287016128c4565b9350506020612a1a868287016128c4565b9250506040612a2b8682870161296c565b9150509250925092565b60008060008060808587031215612a4b57600080fd5b6000612a59878288016128c4565b9450506020612a6a878288016128c4565b9350506040612a7b8782880161296c565b925050606085013567ffffffffffffffff811115612a9857600080fd5b612aa487828801612918565b91505092959194509250565b60008060408385031215612ac357600080fd5b6000612ad1858286016128c4565b9250506020612ae2858286016128d9565b9150509250929050565b60008060408385031215612aff57600080fd5b6000612b0d858286016128c4565b9250506020612b1e8582860161296c565b9150509250929050565b600060208284031215612b3a57600080fd5b6000612b48848285016128ee565b91505092915050565b600060208284031215612b6357600080fd5b6000612b7184828501612903565b91505092915050565b600060208284031215612b8c57600080fd5b600082013567ffffffffffffffff811115612ba657600080fd5b612bb284828501612942565b91505092915050565b600060208284031215612bcd57600080fd5b6000612bdb8482850161296c565b91505092915050565b60008060408385031215612bf757600080fd5b6000612c058582860161296c565b9250506020612c16858286016128c4565b9150509250929050565b60008060408385031215612c3357600080fd5b6000612c418582860161296c565b9250506020612c528582860161296c565b9150509250929050565b612c658161339d565b82525050565b612c74816133af565b82525050565b6000612c858261326e565b612c8f8185613284565b9350612c9f818560208601613420565b612ca881613572565b840191505092915050565b6000612cbe82613279565b612cc881856132a0565b9350612cd8818560208601613420565b612ce181613572565b840191505092915050565b6000612cf782613279565b612d0181856132b1565b9350612d11818560208601613420565b80840191505092915050565b60008154612d2a81613453565b612d3481866132b1565b94506001821660008114612d4f5760018114612d6057612d93565b60ff19831686528186019350612d93565b612d6985613259565b60005b83811015612d8b57815481890152600182019150602081019050612d6c565b838801955050505b50505092915050565b6000612da96014836132a0565b9150612db482613583565b602082019050919050565b6000612dcc600d836132b1565b9150612dd7826135ac565b600d82019050919050565b6000612def6026836132a0565b9150612dfa826135d5565b604082019050919050565b6000612e126014836132a0565b9150612e1d82613624565b602082019050919050565b6000612e35603a836132a0565b9150612e408261364d565b604082019050919050565b6000612e58601d836132a0565b9150612e638261369c565b602082019050919050565b6000612e7b6010836132a0565b9150612e86826136c5565b602082019050919050565b6000612e9e6026836132a0565b9150612ea9826136ee565b604082019050919050565b6000612ec16020836132a0565b9150612ecc8261373d565b602082019050919050565b6000612ee4600083613295565b9150612eef82613766565b600082019050919050565b6000612f076020836132a0565b9150612f1282613769565b602082019050919050565b6000612f2a601c836132a0565b9150612f3582613792565b602082019050919050565b612f4981613407565b82525050565b6000612f5b8285612cec565b9150612f678284612cec565b91508190509392505050565b6000612f7f8284612d1d565b9150612f8a82612dbf565b915081905092915050565b6000612fa082612ed7565b9150819050919050565b6000602082019050612fbf6000830184612c5c565b92915050565b6000608082019050612fda6000830187612c5c565b612fe76020830186612c5c565b612ff46040830185612f40565b81810360608301526130068184612c7a565b905095945050505050565b60006040820190506130266000830185612c5c565b6130336020830184612f40565b9392505050565b600060208201905061304f6000830184612c6b565b92915050565b6000602082019050818103600083015261306f8184612cb3565b905092915050565b6000602082019050818103600083015261309081612d9c565b9050919050565b600060208201905081810360008301526130b081612de2565b9050919050565b600060208201905081810360008301526130d081612e05565b9050919050565b600060208201905081810360008301526130f081612e28565b9050919050565b6000602082019050818103600083015261311081612e4b565b9050919050565b6000602082019050818103600083015261313081612e6e565b9050919050565b6000602082019050818103600083015261315081612e91565b9050919050565b6000602082019050818103600083015261317081612eb4565b9050919050565b6000602082019050818103600083015261319081612efa565b9050919050565b600060208201905081810360008301526131b081612f1d565b9050919050565b60006020820190506131cc6000830184612f40565b92915050565b60006131dc6131ed565b90506131e88282613485565b919050565b6000604051905090565b600067ffffffffffffffff82111561321257613211613543565b5b61321b82613572565b9050602081019050919050565b600067ffffffffffffffff82111561324357613242613543565b5b61324c82613572565b9050602081019050919050565b60008190508160005260206000209050919050565b600081519050919050565b600081519050919050565b600082825260208201905092915050565b600081905092915050565b600082825260208201905092915050565b600081905092915050565b60006132c782613407565b91506132d283613407565b9250827fffffffffffffffffffffffffffffffffffffffffffffffffffffffffffffffff03821115613307576133066134b6565b5b828201905092915050565b600061331d82613407565b915061332883613407565b925082613338576133376134e5565b5b828204905092915050565b600061334e82613407565b915061335983613407565b9250817fffffffffffffffffffffffffffffffffffffffffffffffffffffffffffffffff0483118215151615613392576133916134b6565b5b828202905092915050565b60006133a8826133e7565b9050919050565b60008115159050919050565b60007fffffffff0000000000000000000000000000000000000000000000000000000082169050919050565b600073ffffffffffffffffffffffffffffffffffffffff82169050919050565b6000819050919050565b82818337600083830152505050565b60005b8381101561343e578082015181840152602081019050613423565b8381111561344d576000848401525b50505050565b6000600282049050600182168061346b57607f821691505b6020821081141561347f5761347e613514565b5b50919050565b61348e82613572565b810181811067ffffffffffffffff821117156134ad576134ac613543565b5b80604052505050565b7f4e487b7100000000000000000000000000000000000000000000000000000000600052601160045260246000fd5b7f4e487b7100000000000000000000000000000000000000000000000000000000600052601260045260246000fd5b7f4e487b7100000000000000000000000000000000000000000000000000000000600052602260045260246000fd5b7f4e487b7100000000000000000000000000000000000000000000000000000000600052604160045260246000fd5b6000601f19601f8301169050919050565b7f5061757361626c653a206e6f7420706175736564000000000000000000000000600082015250565b7f636f6e74726163742e6a736f6e00000000000000000000000000000000000000600082015250565b7f4f776e61626c653a206e6577206f776e657220697320746865207a65726f206160008201527f6464726573730000000000000000000000000000000000000000000000000000602082015250565b7f4e6f2066756e647320746f207769746864726177000000000000000000000000600082015250565b7f416464726573733a20756e61626c6520746f2073656e642076616c75652c207260008201527f6563697069656e74206d61792068617665207265766572746564000000000000602082015250565b7f416464726573733a20696e73756666696369656e742062616c616e6365000000600082015250565b7f5061757361626c653a2070617573656400000000000000000000000000000000600082015250565b7f43616e206f6e6c792062652063616c6c656420627920636c61776261636b206160008201527f6464726573730000000000000000000000000000000000000000000000000000602082015250565b7f4f776e61626c653a2063616c6c6572206973206e6f7420746865206f776e6572600082015250565b50565b7f43616e2774206d696e74206d6f7265207468616e206d617820737570706c792e600082015250565b7f5472616e73666572206973206e6f7420756e6c6f636b65642079657400000000600082015250565b6137c48161339d565b81146137cf57600080fd5b50565b6137db816133af565b81146137e657600080fd5b50565b6137f2816133bb565b81146137fd57600080fd5b50565b61380981613407565b811461381457600080fd5b5056fea2646970667358221220ae3d01c215d06a869c57cc2aa1ff3439d4d086c7fe217d48e4f40f80e899610164736f6c63430008040033",
  "linkReferences": {},
  "deployedLinkReferences": {}
}